:020000040800F2
:10000000000001206D1000083D0D00083F0D0008A4
:10001000410D0008430D0008450D000800000000D8
:10002000000000000000000000000000470D000874
:10003000490D0008000000004B0D00084D0D0008A0
:10004000B5100008B5100008B5100008B51000087C
:10005000B5100008B5100008B5100008B51000086C
:10006000B5100008B5100008B5100008B51000085C
:10007000B5100008B5100008B5100008B51000084C
:10008000B5100008B5100008B5100008B51000083C
:10009000B5100008B5100008B5100008B51000082C
:1000A000B5100008B5100008B5100008B51000081C
:1000B000B5100008B5100008B5100008B51000080C
:1000C000B5100008B5100008B5100008B5100008FC
:1000D000B5100008B5100008B5100008B5100008EC
:1000E000B5100008B5100008B5100008B5100008DC
:1000F000B5100008B5100008B5100008B5100008CC
:10010000B5100008B5100008B5100008B5100008BB
:10011000B5100008B5100008B5100008B5100008AB
:10012000B5100008B5100008B5100008B51000089B
:1001300000000000000000000000000000000000BF
:1001400000000000000000000000000000000000AF
:10015000000000000000000000000000000000009F
:10016000000000000000000000000000000000008F
:10017000000000000000000000000000000000007F
:10018000000000000000000000000000000000006F
:10019000000000000000000000000000000000005F
:1001A000000000000000000000000000000000004F
:1001B000000000000000000000000000000000003F
:1001C000000000000000000000000000000000002F
:1001D000000000000000000000000000000000001F
:0401E0005FF8E0F1F3
:1001E40010B5054C237833B9044B13B10448AFF36D
:1001F40000800123237010BD88000020000000004F
:100204006849000808B5034B1BB103490348AFF321
:10021400008008BD000000008C0000206849000830
:1002240047F63003038002230A0F090130323A2AC9
:1002340000D30732C25201330A2BF5D170470000B4
:1002440010B510248EB02246002103A803F0FAFE54
:100254001C2200210DEB020003F0F4FE4FF02043BA
:1002640019480622036003F5827343600023C0E942
:1002740002234FF48052C0E90A234FF48042012143
:10028400C0E90C23C0E90434C0E90633C0E90833EB
:1002940083630F231122CDE90013029308930323F0
:1002A400CDE90B420592694607AA0494099302F02A
:1002B4005AF908B100F066FC044AD36943F4806338
:1002C400D3610EB010BD00BFA800002000000140A3
:1002D400002330B587B00493164B1A6842BB012241
:1002E4001A60154B02255A69032442F480725A613C
:1002F4005B69124803F480730193019B41F201038B
:1003040002A9CDE90235059400F084FF4FF680730D
:100314000B4802A9CDE90235059400F07BFF4CF2AD
:100324003373084802A9CDE90235059400F072FF41
:1003340007B030BDA400002000100240002001409E
:10034400001801400014014070B58AB01022002149
:1003540006A803F077FE2B4B2B4C9A69204642F0FB
:1003640008029A619A6941F2010102F008020092BE
:10037400009A9A69012542F480729A619A6900266A
:1003840002F480720192019A9A6942F040029A61E1
:100394009A6902F040020292029A9A6942F020029B
:1003A4009A619A6902F020020392039A9A6942F0D0
:1003B40010029A619A6902F010020492049A9A69EE
:1003C40042F004029A619B69012203F0040305933D
:1003D400059B01F005F80223204606A9CDE9086330
:1003E400CDE9065500F016FF4FF48053CDE90635EC
:1003F4000323204606A90896099300F00BFF0AB0D0
:1004040070BD00BF00100240000C0140014B986019
:10041400704700BF1000002070B54FF0D8452A2463
:100424002C800B4C060AC0B226802080100AD2B25F
:10043400208022802B222A800A0A2280C9B21A0A2A
:10044400DBB22180228023802C232B8070BD00BF4F
:100454000008006C00210A4B70B51C885E88621E7F
:10046400731E9BB292B205460846FFF7D5FF06FB02
:1004740004F3044A013B00D270BD1580FAE700BFC3
:10048400200000200008006C4822F8B51A4B4FF0F9
:10049400D8461A702822194B32201A708822184B19
:1004A40000241A70E822174B174D1A700123338069
:1004B40000F048FE154F285D40B9FFF7CBFFBDE8BB
:1004C400F84001221248114600F08ABF631C3080B4
:1004D400E85C02340F2802D900F034FEEBE7002870
:1004E400E9D000222B4413F8011F013290423980D5
:1004F400F9D80444DFE700BFF3010020F201002033
:10050400F1010020F0010020237000080008006CB5
:10051400000C014070B51546064A0B461688864203
:1005240007D952888A4204D90246FFF775FF024B65
:100534001D8070BD200000200008006C2DE9F04FE4
:1005440087B00093BDF840300F4601932F4B1988B4
:1005540088421ADA5B889F4217DA2D4B9D68AB8874
:10056400C34212D4EE88FE420FD44FF00009A2F128
:10057400200384B2049304F10803C6F3C706059369
:10058400EB885FFA89F2934239D807B0BDE8F08F5F
:10059400049B5FFA89F00CFB03002968059B06FBAA
:1005A400001110191A4493B211F80A801FFA80FB43
:1005B400039318F0800F1CD0009A58460299FFF755
:1005C400A9FF039B0BF101001FFA80FB4FEA4808C7
:1005D4009B455FFA88F8ECD10AF1010A5FFA8AF1C7
:1005E400CA008E42B5F806C0D2B2D1D809F10109C9
:1005F400C6E7DDE900239342E3D01A46DDE73A4437
:1006040093B24FF0000A0293E8E700BF20000020F5
:10061400100000200FB42DE9FF470CAA52F8041B68
:100624002448039203F004FDDFF88890224CDFF89D
:100634008CA019F8012B22B904B0BDE8F04704B02E
:1006440070470A2A668806D11D4B9B68DB883344B1
:10065400638000230BE00D2A0AD0194F092A25884C
:10066400D7F808800CD1B8F8043005EB8303238055
:10067400BAF8023062889A4224BF00236380D8E724
:10068400BB8828B200933B8831B2FFF757FFB8F814
:1006940004203B7B1544ADB22580002BE8D0BAF88A
:1006A40000309B1A9D42E3DDB8F806301E44668094
:1006B400CFE700BFF0000020F4010020200000205C
:1006C400100000204FF0D8433621144A10711980CD
:1006D40003280CD8DFE800F002171520104B197816
:1006E400104B1980F02313804FF4A0735380002122
:1006F40053881288013B013A08469BB292B2FFF735
:100704008BBE094BEBE7094B1978064B19804FF464
:10071400A0731380F023E9E7054BF5E720000020E0
:10072400F30100200008006CF1010020F201002018
:10073400F001002010B4044C0246208061800B4676
:1007440010BCFFF769BE00BFF401002070226321D2
:10075400094B31301A709970692230215A70D9705E
:10076400DA712E216E2259711A7262210022997156
:100774005A721871704700BFF90300201FB5034671
:100784000B2B28BF0023104C01AA2068616810338A
:1007940003C22089A17A6B441080917013F80C4C29
:1007A4002046FFF78FFF40F23F12002104F0FD04C2
:1007B400002C0ABF1346EF23EF22084604B0BDE81D
:1007C4001040FFF729BE00BF8049000830B5012062
:1007D400C1B0FFF7D3FF00240B4D4FF48073002208
:1007E4002146684600F0E6FB6A460023013432F8ED
:1007F400021B0133802BA5F80011F8D1B4F5167F44
:10080400EBD141B030BD00BF0007006C38B5012208
:1008140005461349134803F023F9134B0446187093
:1008240028B140F2FF70FFF715FE012038BD2846BD
:10083400FFF78CFF2846FFF7A1FF01220B490C4864
:1008440003F03AF90028F1D04FF6E070FFF702FE0A
:1008540022462146204603F003F90220E6E700BFC2
:100864007C0900204C070020F8030020F903002035
:10087400200500202DE9F341FFF7C8FF04460028B6
:100884003AD14FF49675DFF874801D4F1D4E4FF426
:10089400007201AB4146384603F0DCF9019A034685
:1008A400307002B180B14FF47840FFF7D3FD1448A3
:1008B40003F0F8FA00221146104603F0D1F802249E
:1008C400204602B0BDE8F0810C4A0F4932F8020B11
:1008D4000133B3F5807F0880F8D1013DD7D10848B2
:1008E40003F0E0FA2A462946284603F0B9F840F610
:1008F400B83000F027FCE3E70124E1E7F801002029
:1009040020050020F80300200008006C10B590B00A
:100914001422002108A803F095FB1422002101A849
:1009240003F090FB02244FF480330122CDE90D4300
:10093400CDE906234FF4E01306A80A920F9300F0C2
:1009440055FD08B172B6FEE70F23CDE901344FF42B
:1009540080630390CDE90430214601A800F008FF2C
:1009640008B172B6FEE710B010BD000038B500F053
:10097400C5FBFFF7CBFFFFF7E7FCFFF761FC00F0D7
:100984005BF900F001F902F09FF96548FFF73EFDBD
:10099400FFF77AFD0120FFF7F1FE624D0120FFF71A
:1009A40091FE0020FFF756FD2846FFF72FFD642136
:1009B4001420FFF7BFFE5C48FFF72CFE4FF4FA60EB
:1009C40000F0C0FB0024E0B2FFF754FF002800F061
:1009D40095800120FFF776FE0020FFF73BFD2846B7
:1009E400FFF714FD64211420FFF7A4FE4F48FFF71E
:1009F40011FE4FF4FA6000F0A5FB0120FFF762FE40
:100A04000020FFF727FD2846FFF700FD642114208E
:100A1400FFF790FE4648FFF7FDFD4FF4FA6000F043
:100A240091FB0120FFF74EFE0020FFF713FD3C4829
:100A3400FFF7ECFC0A210020FFF77CFE3D48FFF79E
:100A4400E9FD00F043FA00285DD03B4C3B48FFF73A
:100A5400E1FD3B493B48FFF7DDFD216A3A48FFF7DA
:100A6400D9FD61693948FFF7D5FD21693848FFF799
:100A7400D1FDE1693748FFF7CDFDA1693648FFF79D
:100A8400C9FDE1683548FFF7C5FD61893448FFF7C2
:100A9400C1FD3448FFF7BEFD3348FFF7BBFD3348C3
:100AA400FFF7B8FD3048FFF7B5FD41F2883000F09C
:100AB40049FB0020FFF7CEFC0120FFF703FE284688
:100AC400FFF7A4FC32210A20FFF734FE2848FFF781
:100AD400A1FD2848FFF79EFD2748FFF79BFD184915
:100AE4002648FFF797FD40F6AC5000F02BFBFFF7CC
:100AF4006DFE40F6B83000F025FB4FE70134072CBB
:100B04007FF461AF79E72846FFF780FC6421462033
:100B1400FFF710FE1A48FFF77DFD4FF4FA60EAE78D
:100B240000000020080000209E700008B17000083A
:100B3400C3700008D3700008F4040020EE700008AD
:100B44000C040020F27000080571000816710008FA
:100B540028710008397100084A7100085A710008A8
:100B64006A7100087971000893710008B071000877
:100B7400CD710008DC710008E8710008F971000803
:100B84000572000872B6FEE70022064B06494FF4D0
:100B94008040C3E90012C3E902221A610122C3E9B9
:100BA400050270471404002000800140102230B573
:100BB400044689B00DEB0200002103F043FA2268D9
:100BC4001A4B9A422FD103F510435A69022542F475
:100BD40080625A615A69032402F480620192019A84
:100BE4009A69134842F010029A619A6904A902F0C2
:100BF40010020292029A9A6942F020029A619B6959
:100C0400079403F020030393039B4FF48853CDE927
:100C1400043500F0FFFA0423064804A9CDE904359D
:100C2400079400F0F7FA09B030BD00BF008001401E
:100C3400001001400014014008B54FF482730D48C0
:100C44000D4AC0E9002300234FF40072C0E90233C7
:100C5400C0E90433C0E90623C0E9083383620A23E8
:100C6400C36201F089FA18B1BDE80840FFF78ABFF2
:100C740008BD00BF980400200038004010B50446A9
:100C840086B01022002102A803F0DCF92268174B79
:100C94009A4228D103F5EC33DA69154842F48042CC
:100CA400DA61DA6902A902F480420092009A9A6930
:100CB40042F008029A619B694FF4204203F0080352
:100CC4000193019B0223CDE902230323059300F042
:100CD400A1FA4FF4804100230548CDE9021302A98B
:100CE400049300F097FA06B010BD00BF003800402E
:100CF400000C01400E4B82B09A6942F001029A61E5
:100D04009A6902F001020092009ADA6942F0805274
:100D1400DA61DB69074A03F080530193019B53684E
:100D240023F0E06343F00073536002B0704700BFE8
:100D34000010024000000140FEE7FEE7FEE7FEE788
:100D4400FEE770477047704700F0EAB90B4A034664
:100D5400116810B509B90A491160106809490A4CAB
:100D64000344091B8B4206D903F074F90C23036076
:100D74004FF0FF3010BD1360FCE700BFF00400200B
:100D8400F80A002000000120000400007047000061
:100D94007FB564238DF80F0000930DF11702012332
:100DA4000DF10F01034801F03FFA9DF8170007B059
:100DB4005DF804FB98040020F8B5114F00224FF4AD
:100DC4008051384600F00CFB9F20FFF7E1FFA5207F
:100DD400FFF7DEFF0646A520FFF7DAFF0446A5204D
:100DE400FFF7D6FF05462402384601224FF480510E
:100DF40044EA064400F0F4FA44EA0500F8BD00BFF2
:100E0400000C014038B500224FF48051124800F024
:100E1400E7FA4B20FFF7BCFFA520FFF7B9FFA52099
:100E2400FFF7B6FFA520FFF7B3FFA520FFF7B0FF3C
:100E340008240A4DA520FFF7ABFF013C14F0FF0482
:100E440005F8010FF6D1BDE8384001224FF4805176
:100E5400014800F0C5BA00BF000C0140F4040020B2
:100E640038B5044600224FF48051164800F0B8FA11
:100E7400012C154D10D10520FFF78AFFA520FFF79F
:100E840087FF044685F8240001224FF480510D4861
:100E940000F0A6FA204638BD022C09D13520FFF710
:100EA40077FFA520FFF774FF044685F82500EBE7DC
:100EB4001520FFF76DFFA520FFF76AFF044685F8AC
:100EC4002600E1E7000C0140F404002038B50123BA
:100ED400354C84F8273000F02FF963281DD90122FE
:100EE4004FF48051314800F07BFA642000F02AF975
:100EF400FFF762FF0546EDB20146113D2C48FFF7AE
:100F04008FF90F2D4ED8DFE805F04643403D3A37C0
:100F140034300C4D4D4D4D4D4D49012000F012F92A
:100F2400D9E709224FF4007322704FF48072628172
:100F34004FF4805222611A0162611A02E2604FF496
:100F44008032E3619B01A2612362FFF75BFF012012
:100F5400FFF786FF0220FFF783FF0320FFF780FFE0
:100F64000120002384F8273038BD08224FF4807311
:100F7400DAE707228023D7E706224023D4E70522B5
:100F84002023D1E704221023CEE703220823CBE752
:100F940002220423C8E701220223C5E70A224FF4F0
:100FA4008063C1E70020DCE7F4040020000C01406A
:100FB400080400202DE9F0410746884615461C46E2
:100FC400264E96F82700012840D0012386F82730C2
:100FD4007389A3423DD3002C08BF1C466219934277
:100FE4004FF480514FF000021D4838BF5C1B08FBD2
:100FF400035500F0F5F93378082B2CD90C20FFF7B2
:10100400C7FE280EFFF7C4FEC5F30740FFF7C0FE76
:10101400C5F30720FFF7BCFEE8B2FFF7B9FE0020D6
:10102400FFF7B6FE64233946A2B20E4801F0F8F980
:1010340001224FF480510A4800F0D2F9012000F057
:1010440081F8002386F82730BDE8F08100F07AF8B3
:10105400B7E71C46C2E70B20D4E700BFF404002026
:10106400000C014098040020FFF790FE0B480C4947
:101074000C4A002302E0D458C4500433C4188C42F0
:10108400F9D3094A094C002301E013600432A24257
:10109400FBD302F0E5FFFFF769FC70470000002076
:1010A400880000201873000888000020F80A002037
:1010B400FEE7000038B50E4B05461A784FF47A73F4
:1010C400B3FBF2F30B4A1068B0FBF3F000F08EF8B8
:1010D400044658B90F2D09D8024629464FF0FF306F
:1010E40000F054F82046044B1D6038BD0120FCE795
:1010F4002C0000202800002030000020074A08B5FA
:101104001368032043F01003136000F02DF80F2040
:10111400FFF7D0FFFFF7EEFD002008BD00200240DE
:10112400034A044B11681B780B441360704700BFDB
:101134001C0500202C000020014B1868704700BFDC
:101144001C05002038B50446FFF7F6FF0546631C6E
:101154001EBF044B1B78E418FFF7EEFF431BA342AA
:10116400FAD338BD2C00002007490302CA6803F4EF
:10117400E06322F4E0621204120C134343F0BF63F1
:1011840043F40033CB60704700ED00E0154B30B5FD
:10119400DC68C4F30224C4F10703251D042B28BF13
:1011A4000423062D4FF0FF3594BF0024033C05FAB9
:1011B40003F321EA0303A54022EA0502A340002821
:1011C40043EA0203ACBF00F16040074A4FEA03134D
:1011D400DBB2ABBF00F5614000F00F0080F80033D4
:1011E400135430BD00ED00E014ED00E00138B0F11F
:1011F400807F0BD24FF0E023F021054A586182F83A
:1012040023100020072298611A617047012070475B
:1012140000ED00E02DE9F74F00242646DFF8A4C1D5
:10122400694BDFF8A8E1DFF8A8810A6832FA06F50D
:1012340002D103B0BDE8F08F0127B74002EA0705E9
:1012440037EA020240F083804A68032A07D8013A49
:10125400022A00F28C80DFE802F09BA0A600122A8A
:1012640000F09E8075D8112A00F09480FF2D98BF5D
:1012740081464FF00F0B88BF00F104094FEA860244
:10128400D9F8007088BF203A0BFA02FA27EA0A0755
:1012940004FA02F21743C9F80070D1F8049019F067
:1012A400805F54D0DCF8182026F0030742F00102D6
:1012B400CCF81820DCF8182007F1804702F001026E
:1012C400019207F5803706F0030A019A4FEA8A0A69
:1012D400BA680BFA0AFB22EA0B0B3E4A904266D02C
:1012E40002F58062904264D002F58062904262D03E
:1012F40002F58062904260D002F5806290425ED036
:1013040002F58062904214BF0622052202FA0AF214
:1013140042EA0B02BA609A6819F4801F14BF2A4388
:10132400AA439A60DA6819F4001F14BF2A43AA4337
:10133400DA605A6819F4003F14BF2A43AA435A607A
:101344001A6819F4803F14BF2A43AA431A6001366D
:101354006BE7DFF884904A4509D011D8A9F58019C4
:101364004A4504D0724502D042457FF47FAF8A6873
:10137400DAB1012A4FF008040CBF0761476175E731
:10138400DFF858904A45F2D009F580394A45ECE730
:10139400CC686BE7CC68043468E7CC68083465E74C
:1013A400CC680C3462E7002460E704245EE7002282
:1013B400ACE70122AAE70222A8E70322A6E7042257
:1013C400A4E700BF00100240000401400000211007
:1013D400000011100008014000002210000031102C
:1013E4000AB1016170470904FBE700002DE9F341EC
:1013F400054638B30368DB0710D42B689F075ED417
:101404002B68190700F195802B685A0700F1C180F9
:10141400EB69002B40F02C81002029E0904C63689C
:1014240003F00C03042B07D0636803F00C03082BB0
:101434000AD16368DE0307D523689C03DDD56B6896
:10144400002BDAD1012013E06B68B3F5803F12D191
:10145400236843F480332360FFF76EFE0646236857
:101464009803CAD4FFF768FE801B6428F7D90320C9
:1014740002B0BDE8F0819BB9236823F48033236074
:10148400236823F480232360FFF756FE064623686F
:101494009903B2D5FFF750FE801B6428F7D9E6E71D
:1014A400B3F5A02F236803D143F480232360CFE74F
:1014B40023F480332360236823F48023CBE7684C30
:1014C400636813F00C0F07D0636803F00C03082B58
:1014D40010D16368DA030DD423689B0702D52B6906
:1014E400012BAFD123686A6923F0F80343EAC203EE
:1014F400236085E72A695B4B6AB101221A60FFF712
:101504001BFE064623689F07ECD4FFF715FE801BDD
:101514000228F7D9ABE71A60FFF70EFE06462368E8
:1015240098077FF56DAFFFF707FE801B0228F6D9F9
:101534009DE7AA694A4E4B4BE2B10122C3F88024CD
:10154400FFF7FAFD0446736A9B070DD54FF4FA5270
:10155400454B1B68B3FBF2F3019300BF019B5A1E7A
:101564000192002BF9D14FE7FFF7E6FD001B02289B
:10157400E9D97CE7C3F88024FFF7DEFD0446736AEB
:101584009F077FF541AFFFF7D7FD001B0228F6D96F
:101594006DE7334CE369D80024D40127E36943F0B1
:1015A4008053E361E36903F080530093009B2F4E63
:1015B4003368D90518D5EB68012B26D1236A43F08B
:1015C40001032362FFF7B8FD41F288380646236A17
:1015D4009B073FD5002F3FF41BAFE36923F08053F3
:1015E400E36115E70027E2E7336843F4807333606F
:1015F400FFF7A2FD80463368DA05DCD4FFF79CFDD3
:10160400A0EB08006428F6D931E7ABB9236A41F2AC
:10161400883823F001032362236A23F0040323623E
:10162400FFF78AFD0646236A9807D3D5FFF784FDA2
:10163400801B4045F7D91AE7052B236A03D143F0F1
:1016440004032362BAE723F001032362236A23F02D
:101654000403B6E7FFF770FD801B4045B7D906E7E2
:1016640000100240000042422800002000700040A8
:101674002A4C626802F00C02082A3ED00022022B97
:10168400274B1A662CD1FFF757FD064623689901AC
:1016940020D42B6AB3F5803F05D16268A96822F48F
:1016A40000320A436260696A62680B4322F474126E
:1016B4001343012263601A4B1A66FFF73DFD05468A
:1016C40023689A013FF5A8AEFFF736FD401B0228B8
:1016D400F6D9CCE6FFF730FD801B0228D6D9C6E642
:1016E400FFF72AFD054623689B017FF595AEFFF7BA
:1016F40023FD401B0228F6D9B9E6012B3FF4A2AE24
:1017040060682B6A00F480329A427FF49BAE6B6A65
:1017140000F47010C01A18BF0120A9E6001002409E
:10172400000042420D4A536803F00C01082912D10B
:101734000B48C3F38341DB03405C09D55368094A72
:10174400C3F340435043084AD35CB0FBF3F0704703
:10175400064B584370470348704700BF00100240CF
:101764002772000800127A002572000800093D0063
:101774002DE9F0410D46044610B90120BDE8F08181
:10178400444A136803F007038B4228D321688E0769
:1017940030D4CA0743D43F4A136803F00703AB426B
:1017A40065D822683C4D12F0040F6CD1130706D59E
:1017B4006B68226923F4605343EAC2036B60FFF74A
:1017C400B1FF6B68354AC3F30313D35CD840344B81
:1017D4001860344B1868FFF76DFC0020CEE71368DF
:1017E40023F007030B431360136803F007038B42D2
:1017F400C3D1CBE7284B11F0040F1EBF5A6842F443
:10180400E0625A60080742BF5A6842F460525A6064
:101814005A68A06822F0F00202435A60B9E762688D
:101824001D4E012A33681AD113F4003FA5D0736802
:1018340041F2883823F0030313437360FFF77CFC01
:1018440007467368626803F00C03B3EB820FA2D0FF
:10185400FFF772FCC01B4045F3D903208EE7022A30
:1018640002D113F0007FE1E713F0020FDEE7136803
:1018740023F007032B431360136803F00703AB4201
:101884007FF47BAF8DE76B68E16823F4E0630B437F
:101894006B608BE7002002400010024015720008C4
:1018A40028000020300000202DE9F04F87B00446C6
:1018B4000D4616469946FFF73FFC07463DB9A36B14
:1018C40043F00063A363012007B0BDE8F08F94F8F0
:1018D4003430012B40F0E2800021E26D06EB090375
:1018E4009342A16303D9A36B43F00073EAE7032394
:1018F40084F83430636C4FF0020B012B4FF0FF334C
:1019040000934FEA492301934FF090034FF0010AEB
:10191400CDE9023B4FF00003206818BF7602C16294
:101924006946CDE9043A00F0FBFED14512D93146AF
:101934002068C4F830B000F0EDFF236888B1594A3C
:101944009A63A36B0343A363012384F83430002315
:101954002363B8E731462068C4F830A000F0C1FF23
:10196400EBE740F22A3A019E2068436B13EA0A0F20
:10197400436B0CD0DB0539D5B9F1010F36D9636C53
:10198400032B33D001F012F880B32368D7E71A048D
:1019940018D5BEB105F1040B05F12408206800F048
:1019A40099FE020A0BF8040C0BF8032C020C000E2F
:1019B4000BF8022C0BF8010C0BF1040BC345EDD111
:1019C4002035203EFFF7B8FB109BC01B9842CBD3B9
:1019D4002368344A03209A63A36B43F00043A36350
:1019E400012384F83430002323636DE723685A6BA2
:1019F400100703D4596B11F4007105D0294A9A6376
:101A0400A36B43F008039EE75A6B12F002020AD05C
:101A1400244A9A63A36B43F00203A363012384F86B
:101A2400343021634FE7596B890628D51D499963E2
:101A3400A36B43F02003A363012384F834302263AF
:101A440041E700F047FE030A05F8033C030C05F8E0
:101A5400023C030E05F8013C05F8040CFFF76CFB8F
:101A6400109BC01B9842A6F1040605F1040507D398
:101A740023680C4A9A63A36B43F0004363E704357D
:101A84002068436B9B0201D5002EDAD140F23A5311
:101A940083630123002084F8343015E7A36B43F0FB
:101AA40000530FE7FF0540002DE9F04F89B00446CD
:101AB4000D4691461F46FFF73FFB80463DB9A36B99
:101AC40043F00063A363012009B0BDE8F08F94F8EC
:101AD4003430012B40F0AD800021E26D09EB0703A7
:101AE4009342A16303D9A36B43F00073EAE7032392
:101AF40084F83430636C9026012B4FF0FF3302934B
:101B04004FEA472303934FF00003CDE904630693A0
:101B14004FF00103206818BF4FEA4929C16202A9A6
:101B2400079300F0FDFD012F12D9202349462068B8
:101B3400236300F021FF236888B1404A9A63A36BB2
:101B44000343A363012384F8343000232363BAE7F7
:101B5400102349462068236300F0F5FEEBE740F2CA
:101B64001A3A039E2068436B13EA0A0F436B0BD0A7
:101B7400D9052BD5012F29D9636C032B26D000F06E
:101B840015FF18B32368D8E758040CD55EB105F1E6
:101B9400200B55F8043B206801A9019300F09DFD3A
:101BA400AB45F6D1203EFFF7C7FA129BA0EB080025
:101BB4009842D7D32368214A03209A63A36BA36373
:101BC400012384F83430002323637DE723685A6BB0
:101BD400120703D4596B11F4007105D0174A9A63A4
:101BE400A36B43F00803ACE75A6B12F002020AD06D
:101BF400124A9A63A36B43F00203A363012384F89C
:101C0400343021635FE7586B10F010000AD00B49A1
:101C14009963A36B43F01003A363012384F8343066
:101C2400226350E740F23A529A63012384F8343035
:101C34004AE7A36B43F0005344E700BFFF054000AD
:101C44000346426E10B5900F0870C2F3836048706B
:101C5400C2F301608870C2F30740C870C2F3072062
:101C6400D2B208714A719A6E100DC880C2F3034053
:101C74000872C2F3C0304872C2F380308872C2F373
:101C84004030C872C2F30030087300204873586CA7
:101C940000286BD140F6FC74D86E04EA820242EA52
:101CA40090720A61C0F3C2620A75C0F302624A7597
:101CB400C0F342528A75C0F38242C0F3C230CA757F
:101CC400087608690A7E013002F007020232904069
:101CD400012258650C7A04F00F04A2409A65520A56
:101CE4004243DA654FF400721A66DA6EC2F380304A
:101CF4004876C2F3C6108876002002F07F02CA76C6
:101D04001B6FDA0F0A77C3F341724A77C3F3826217
:101D14008A77C3F38352CA77C3F3405281F82020F1
:101D2400C3F3004281F8210081F82220C3F3C032BA
:101D340081F82320C3F3803281F82420C3F3403296
:101D440081F82520C3F3003281F82620C3F38122D1
:101D540081F82720C3F30122C3F3460381F8282026
:101D640081F82930012381F82A301BE001280FD1A2
:101D7400B3F86E00120402F47C1202430A610A6989
:101D8400013292025A65DA654FF400729A65A9E746
:101D940001201A68044991639A6B42F080529A6355
:101DA40083F8340010BD00BFFF054000F0B50025E6
:101DB40076230446012699B0CDE909550B950C9379
:101DC4000AAB93E807008DE80700CDE90755754F86
:101DD40007AB0ECB206800F061FCC7F8A050206868
:101DE40000F080FC0220C7F8A060FFF7ABF9206880
:101DF400069500F0A9FC054690B9206800F04CFF58
:101E040030B12068A56400F09FFC98B1054607E056
:101E1400A6640021206800F0FCFD70B14FF08055ED
:101E2400012384F83430A36B2B43A3630125284694
:101E340019B0F0BDA36C012BEBD000214FF6FE7658
:101E4400594F14E0206800F0E4FD05460028E7D16E
:101E54003946206800F082FE0028DFD12946206838
:101E640000F05BFC0546069BC10F01330693069BFD
:101E7400B34201D80029E5D0069BB34211D801230F
:101E8400C5F3807520686564ADF8163000F02EFC4B
:101E940050B94FF08061012384F83430A36B0B43B5
:101EA400C3E74FF08075BBE7636C2068032B43D016
:101EB40000F008FE01460028EDD1206800F02DFC5A
:101EC40004216067206800F028FC0821A0672068CE
:101ED40000F023FC0C21E067206800F01EFC636C1A
:101EE400C4F88000032B27D00DF11601206800F000
:101EF4008FFE01460028CED1636C2068032B1BD0D3
:101F0400BDF816102165090400F0F2FD0146002811
:101F1400C1D1206800F001FC04216066206800F053
:101F2400FCFB0821A066206800F0F7FB0C21E066AA
:101F3400206800F0F2FB20670421206800F0EDFB2C
:101F4400000DE0640DA92046FFF77AFE054628BB84
:101F5400226D03461204206800F042FD0146002869
:101F640099D104F1100393E807008DE80700231DBD
:101F74000ECB206800F092FB4FF40071206800F053
:101F840097FC00283FF453AF2368084A9A63A36B75
:101F94000343A363012384F8343047E74FF08051AF
:101FA40079E700BF00003042000010C1FF05400087
:101FB40010B5044608B9012010BD90F8343003F080
:101FC400FF0213B90277FEF7F1FD0323204684F8DC
:101FD4003430FFF7EBFE0028EDD10123A06320632A
:101FE40084F83430E8E7436C0B60836C4B60C36C5B
:101FF4008B60036DCB60436D0B61836D4B61C36D6F
:102004008B61036E0020CB617047016D10B509042C
:102014000446006800F016FD014628B9206800F067
:102024007CFBC0F3432010BDA36B0343A3630020D8
:10203400F7E700002DE9F3471F468946904604461A
:10204400FFF77AF80A9D3D442D1AFFF775F882468A
:10205400254B1E68C6F3CB366E43019622689368FF
:1020640039EA03030CBF01230023434501D10020B7
:102074002EE07B1CF3D0FFF75FF8A0EB0A00A84228
:1020840029D323685A6822F0E0025A606268B2F5E4
:10209400827F0AD1A268B2F5004F02D0B2F5806FF8
:1020A40003D11A6822F040021A60A26AB2F5005FF6
:1020B40007D11A6822F400521A601A6842F40052D6
:1020C4001A60012384F851300023032084F850302F
:1020D40002B0BDE8F087019A019B002A03F1FF33A7
:1020E40008BF15460193B9E72800002073B50B46D5
:1020F40000920D461646022101220446FFF79AFF7C
:10210400024628B1636D032043F02003636507E0B2
:102114002B46802120460096FFF78CFF0028F1D142
:1021240002B070BD37B50B4641680446B1F5827FF5
:1021340018D18168B1F5004F02D0B1F5806F11D18B
:102144002568B1F5806F286820F04000286009D127
:102154000092012100222046FFF76CFF30B90020D5
:1021640003B030BD009280210022F4E7636D0320A8
:1021740043F020036365F3E710B50446002851D00B
:10218400436A002B4AD14268B2F5827F00D0C36112
:102194000023A36294F8513003F0FF0223B92046D0
:1021A40084F85020FEF76AFD0223226884F8513037
:1021B4001368A06823F040031360636800F40440CC
:1021C40003F482730343E068A16900F400600343ED
:1021D400206900F002000343606900F0010003433A
:1021E40001F400700343E069090C00F03800034374
:1021F400206A01F0040100F080000343A06A00F4A7
:102204000050034313605160D369002023F400633A
:10221400D3610123606584F8513010BD0023C0E907
:102224000433B5E70120F8E72DE9F74304460D46EA
:1022340091461E46DDF82880FEF77EFF94F8513063
:102244000746012B6268D9B20AD0B2F5827F40F00A
:10225400E580A368002B40F0E180042940F0DE8093
:10226400002D4BD0B9F1000F48D0002E46D094F881
:102274005030012B00F0D280012384F8503094F8C0
:102284005130C4F83890042B1CBF052384F8513016
:1022940000236365C4E910332368E687E68619687A
:1022A400A687490658BF1968256358BF41F0400105
:1022B400A68658BF1960E168B1F5006F55D10AB11F
:1022C400012E07D135F8022BDA60E38E2563013B3A
:1022D4009BB2E3860125E38E9BB28BB9E38F9BB25D
:1022E40073B93A4641462046FFF700FF002800F044
:1022F400818020236365002384F85030012031E07D
:1023040021688B689A070DD5E38E9BB253B145B112
:10231400236B33F8022BCA602363E38E013B9BB229
:10232400E38600258A6812F001020CD0E38F9BB289
:102334004BB11546C968A36B23F8021BA363E38F53
:10234400013B9BB2E387FEF7F7FEC01B4045C2D3B7
:10235400B8F1FF3FBFD0012384F85130002303209C
:1023640084F8503003B0BDE8F0830AB1012E08D1DF
:102374002A781A73236B01332363E38E013B9BB2E8
:10238400E38601252DE0226893689B070ED5E38E32
:102394009BB25BB14DB1236B1B781373236B013379
:1023A4002363E38E013B9BB2E38600252268916898
:1023B40011F001010DD0E38F9BB253B10D46D268E9
:1023C400A36B1A70A36B0133A363E38F013B9BB22E
:1023D400E387FEF7B1FEC01B404502D3B8F1FF3FCF
:1023E400B9D1E38E9BB2002BCDD1E38F9BB2002BEE
:1023F400C9D176E7A36833B901932368DA680192F7
:102404009B680193019B012384F851300023606D84
:1024140084F85030C01A18BF0120A3E70220A1E7B6
:102424002DE9F7431E4690F851300446012B8946A6
:102434001746DDB204D00225284603B0BDE8F08378
:102444004368B3F5827F0BD183684BB9042380F8CA
:102454005130134600960A46FFF7E6FE0546EBE7C1
:10246400FEF76AFE8046B9F1000FE5D0002FE3D0F5
:1024740094F85030012BDED00123002584F850302D
:102484000423A26884F85130B2F5004F6565C4E9AD
:102494001055E7872368C4F83890A7872563A58675
:1024A400E58607D11A6822F040021A601A6822F4FD
:1024B40080421A601A6855065EBF1A6842F04002EC
:1024C4001A60E368F3B1E38F9BB2FBB123689A68A7
:1024D400D2073CD5DA68A36B23F8022BA363E38FFE
:1024E400013B9BB2E387EEE723689A68D0071ED5C9
:1024F4001B7BA26B1370A36B0133A363E38F013BBC
:102504009BB2E387E38F9BB2002BEDD14246314669
:102514002046FFF707FE18BB012384F8513000233F
:10252400656D84F85030ED1A18BF012584E7FEF775
:1025340003FEA0EB0800B042E4D3711CE2D00123F7
:1025440084F851300023032584F8503074E7FEF7F3
:10255400F3FDA0EB0800B042B5D3731CB3D0EEE793
:1025640020236365D8E770B50E461546044648B384
:102574008369B3F5807F25D090F8413003F0FF02E2
:102584001BB980F84020FDF7A3FE04F10801206880
:1025940000F01AF83146A268206800F047F829468E
:1025A400236BA268606800F05BF82268A1680020D1
:1025B40052F8213043F0010342F82130012384F81A
:1025C400413070BD0120FCE70A6870B550F8223034
:1025D4008C6823F0010340F822304B68CE68234313
:1025E40033430E6950F8225033434E693343CE6966
:1025F40033430E6A33434E6A33438E6A3343CE6A9F
:1026040033430E6B33438E69496B33430B430649A3
:1026140029400B43A4F108014C424C4143EA841382
:1026240040F82230002070BD8000F0FF0B6810B528
:102634008C69013223434C6843EA04138C6843EAEF
:102644000423CC6843EA04430C694969013C43EA26
:102654000453023943EA016340F82230002010BDDC
:10266400B3F5804F30B514D18D690B6850F8224012
:102674002B434D6843EA05138D68C96843EA052373
:1026840043EA0143044921400B4340F8223000202F
:1026940030BD6FF07043F8E70000F0CF84B010B5A0
:1026A40003AC84E80E000B46049942680B43059979
:1026B40022F4FD420B43069922F07F020B43079953
:1026C4000B430899BDE810400B431343436004B027
:1026D40000207047D0F8800070470B68C0F8803045
:1026E400002070470323036000207047006800F057
:1026F400030070470B6810B58360C268D1E90134E8
:102704002343CC680969234322F47F620B4322F0FC
:102714000F021343C360002010BD143040587047AB
:102724000B6810B543624B688362D1E902342343DA
:102734000C69C26A496923430B4322F0F70213432D
:10274400C362002010BD0000002310B586B0CDE99F
:102754000133CDE903334FF4806301A905930446A3
:10276400FFF7C8FF4FF4FA52094B1B68B3FBF2F3AF
:1027740041F288325343013B07D3626B1206FAD508
:10278400C5230020A36306B010BD4FF00040FAE754
:102794002800002010B54FF4FA540346424800685C
:1027A400B0FBF4F04243002A49D0586B10F0450FB7
:1027B40007D0000505D45A6B540704D50420986348
:1027C40010BD013AEFE75A6BD00703D501229A6393
:1027D4000120F5E7C5229A631A69D2B29142F7D172
:1027E4005B69324818400028EAD0002B2ADB5A00E3
:1027F4002BD49C002BD4D9002BD41A012CD45C01EB
:102804002DD4D9012ED41A022FD45C0230D49902CB
:1028140031D4DA0232D45C0333D4990334D4DA03E6
:1028240035D41C0436D4590437D49A0438D413F05C
:10283400080F0CBF4FF480304FF40000C0E74FF096
:102844000040BDE74FF00070BAE74020B8E78020B1
:10285400B6E74FF48070B3E74FF40070B0E74FF47D
:102864008060ADE74FF40060AAE74FF48050A7E71B
:102874004FF40050A4E74FF48040A1E74FF4004028
:102884009EE74FF400309BE74FF4802098E74FF425
:10289400002095E74FF4801092E74FF400108FE783
:1028A4004FF480008CE700BF2800002008E0FFFD03
:1028B40030B54023102587B004460022CDE90253E9
:1028C4004FF48063019101A9CDE90423FFF712FFBE
:1028D40041F288322946204607B0BDE83040FFF770
:1028E40059BF30B54023112587B004460022CDE9F5
:1028F40002534FF48063019101A9CDE90423FFF74A
:10290400F9FE41F288322946204607B0BDE830403E
:10291400FFF740BF30B54023122587B0044600229C
:10292400CDE902534FF48063019101A9CDE9042359
:10293400FFF7E0FE41F288322946204607B0BDE8A1
:102944003040FFF727BF30B54023182587B0044631
:102954000022CDE902534FF48063019101A9CDE92E
:102964000423FFF7C7FE41F288322946204607B008
:10297400BDE83040FFF70EBF30B54023192587B0BE
:1029840004460022CDE902534FF48063019101A96A
:10299400CDE90423FFF7AEFE41F2883229462046F2
:1029A40007B0BDE83040FFF7F5BE000030B50023A6
:1029B4000C25402287B0CDE903230446CDE9013537
:1029C4004FF4806301A90593FFF794FE294620463E
:1029D400024A07B0BDE83040FFF7DCBE00E1F50570
:1029E40030B54023072587B00446CDE90253019250
:1029F4004FF48063002201A9CDE90423FFF77AFE96
:102A040041F288322946204607B0BDE83040FFF73E
:102A1400C1BE30B54023372587B004460022CDE936
:102A240002534FF48063019101A9CDE90423FFF718
:102A340061FE41F288322946204607B0BDE83040A5
:102A4400FFF7A8BE30B540230D2587B00446002209
:102A5400CDE902534FF48063019101A9CDE9042328
:102A6400FFF748FE41F288322946204607B0BDE808
:102A74003040FFF78FBE00004FF4FA51104B02466E
:102A84001B68B3FBF1F341F288314B43013B13D391
:102A9400516B11F0450FF9D00905F7D4536B5B075F
:102AA40002D5042090637047506B10F0010014BFEE
:102AB4000123C523936370474FF00040704700BF64
:102AC400280000200023022210B586B0CDE901328F
:102AD400C0220446CDE903234FF4806301A9059382
:102AE400FFF708FE204606B0BDE81040FFF7C4BF5C
:102AF4000922C02310B586B0CDE9022301914FF419
:102B0400806300210446CDE9041301A9FFF7F2FD17
:102B1400204606B0BDE81040FFF7AEBF4FF4FA51AF
:102B24000D4B02461B68B3FBF1F341F288314B4372
:102B3400013B0ED3516B11F0450FF9D00905F7D4C1
:102B4400506B10F0040015BF0420C52390639363F9
:102B540070474FF00040704728000020292240238E
:102B640010B541F0004186B041F48011CDE9022353
:102B740001914FF4806300210446CDE9041301A9B7
:102B8400FFF7B8FD204606B0BDE81040FFF7C6BF0A
:102B940010B54FF4FA5403461C480068B0FBF4F037
:102BA40041F288346043013829D35C6B14F0450F3B
:102BB400F9D02405F7D4586B440702D50420986350
:102BC40010BD586BC00703D501229A630120F7E7B3
:102BD4001869C0B28142F9D1C52199635B6913F4C4
:102BE400604002D11B0C1380EAE75A040AD413F4A0
:102BF400004F0CBF4FF480304FF48050E0E74FF0AB
:102C04000040DDE74FF40050DAE700BF2800002061
:102C140070B500230326402286B0CDE90323044681
:102C24000D46CDE901364FF4806301A90593FFF702
:102C340061FD2A463146204606B0BDE87040FFF7E4
:102C4400A7BF00004FF4FA51124B02461B68B3FBB6
:102C5400F1F341F288314B43013B17D3516B11F02F
:102C6400450FF9D00805F7D4536B590702D5042052
:102C740090637047506B10F0010002D001239363FE
:102C84007047536B5B0603D54023F8E74FF00040D1
:102C9400704700BF280000204FF4D572082310B5F8
:102CA40086B0CDE90123402100230446CDE9031376
:102CB4004FF4806301A90593FFF71CFD204606B07D
:102CC400BDE81040FFF7BEBF08B50349034801F053
:102CD4001DF9034B187008BD7C090020C872000858
:102CE400800900200020704707B5009313460A4668
:102CF40001460448FEF7D8FD003818BF012003B090
:102D04005DF804FB1404002007B5009313460A463B
:102D140001460448FEF7C8FE003818BF012003B07E
:102D24005DF804FB1404002008B50348FFF76DF9AF
:102D3400043818BF012008BD1404002001460148CE
:102D4400FFF751B914040020012382B08DF8073035
:102D54009DF8070002B0704708B5FFF7F5FF01289A
:102D640004D1BDE808400248FFF722B9012008BD9C
:102D740014040020034B1A1803EB80035B68107AD9
:102D84005B681847A4090020064B1A5C42B901226B
:102D94001A541A1803EB80035B68107A1B681847EF
:102DA40000207047A409002030B4054C251804EB1A
:102DB400800460688468287AA44630BC604700BFF9
:102DC400A409002030B4054C251804EB8004606885
:102DD400C468287AA44630BC604700BFA409002018
:102DE40010B4044B1C1803EB80035B68207A1B6946
:102DF40010BC1847A409002001380A4411F8013B0B
:102E0400914200F8013FF9D17047024400F8011BD8
:102E14009042FBD1704700001E4B0246186830B543
:102E240078B1D2F80042A04209D15C68D2F8080215
:102E3400844204D11C89B2F80602844215D00024CD
:102E440000E00124D868D0B1D2F80052A84209D1D8
:102E54001D69D2F80802854204D1988AB2F8062284
:102E6400904206D03CB1002009E0002241B110207C
:102E740005E00122FAE7022914BF1220002030BD28
:102E84000C2101FB02335889A0F580735842584144
:102E94000001F4E784090020244AF0B51368D0F84F
:102EA40000629E4209D1D0F808525468A54204D168
:102EB4001589B0F80642A5421ED0D468B4421DD18B
:102EC4001769D0F80852AF4218D1978AB0F8065261
:102ED400AF4213D101230C2000FB0320408909BB1E
:102EE4000C2101FB03214989013189B20C2000FB2B
:102EF4000322581C5181F0BD0023ECE70BB19CB9AF
:102F040001230C245C4315191651D0F80842B0F87B
:102F140006026C602881002068810029E0D04FF40B
:102F24008071E3E70028FAD00020E4E78409002058
:102F34000138012817D80C220C4902FB00125389CE
:102F4400B3F5807F06D1002353810C23584300231B
:102F54000B5006E0002BF8D0013B9BB25381002BB1
:102F6400F3D0002070470220704700BF840900207E
:102F7400054B1A68904204BF00221A60DA68904236
:102F840004BF0022DA60704784090020D0F80022D0
:102F9400490A92F80222D0F82432B1FBF2F1043348
:102FA400186830B1814202D3091A0833F8E7586827
:102FB40008447047036810B553B119460A4611F81E
:102FC400014B202C0CD93A2CF8D11978302902D095
:102FD4004FF0FF3005E001339A42F9D1013202602B
:102FE400002010BD70B590F8043204460BB90020DF
:102FF40070BDD0F82C52014601232A4690F80102F4
:10300400FFF7E0FEC0B9D4F82032D4F81822EB1A46
:10301400934284F80402EAD294F80362012EE6D9BA
:10302400D4F8183221461D442A46012394F801029B
:10303400FFF7C8FE013EF1E70120D9E708B590B1DA
:10304400D0F800327BB193F8002262B1B3F80612D3
:10305400B0F80422914206D193F80102FFF78AFEE8
:1030640010F0010000D0092008BD38B5D0F82C328A
:1030740005468B420C4611D0FFF7B4FF68B92246CF
:103084000123294695F80102FFF78EFE00281CBF94
:103094004FF0FF340120C5F82C4238BD0020FCE776
:1030A400002310B580F804324FF0FF33C0F82C32FF
:1030B4000446FFF7DAFFA0B94AF65523B4F8FE2117
:1030C4009A4210D1D4F83630084A23F07F43934211
:1030D40006D0D4F8520020F07F40801A18BF012097
:1030E40010BD0320FCE70220FAE700BF464154006C
:1030F4000023F0B50360074685B008461646FFF77F
:1031040059FF051EC0F20181834B53F82540002C62
:1031140000F0FD803C6094F800326BB194F8010239
:10312400FFF728FEC70707D40EB1410702D40020D9
:1031340005B0F0BD0A20FBE70023E8B284F80032B2
:1031440084F80102FFF720FEC20700F1E2800EB10D
:103154004307EFD400212046FFF7A2FF01280546CC
:1031640040F0BB806F46394604F5DF7304F5FF7009
:103174001A7902B19A681033984241F8042BF7D1B6
:10318400002657F8045B002D00F09E802946204657
:10319400FFF786FF002840F09880B4F80B30B3F5B1
:1031A400007F40F09F80E08A00B9606A277CC4F801
:1031B40018027B1E012B84F8037200F2938094F8AA
:1031C4000DC084F802C2BCF1000F00F08B800CF13A
:1031D400FF3313EA0C0F40F08580B4F811E01EF0C1
:1031E4000F0FA4F808E27DD1B4F8136006B9266A7B
:1031F400E289002A76D0474302EB1E1139448E42FD
:1032040070D3761A6645B6FBFCF36BD340F6F576BD
:10321400B34269D94FF6F576B34294BF022603262A
:1032240002332A442944032EC4F81432C4F81C522D
:10323400C4F82022C4F8281258D1BEF1000F51D18D
:10324400E76A9B0003F2FF13B0EB532FC4F8247218
:1032540048D34FF0FF33C4E983338023032E84F82B
:10326400053224D1238E012B21D12046691CFFF77E
:10327400FCFEE0B94AF65523B4F8FE2184F80502B1
:103284009A4214D12268254B9A4210D103F1FF537C
:10329400D4F8E42103F5005320339A4201BFD4F853
:1032A400E831C4F81032D4F8EC31C4F80C321C4ABA
:1032B4002046138884F8006201339BB2A4F80632D6
:1032C4001380FFF755FE32E702200136042E7FF407
:1032D40058AF032806D101202AE70328FBD0002891
:1032E4003FF45BAF0D2023E7012699E7BEF1000F01
:1032F400F8D0022E17444FEA43021BBFD21803F042
:103304000103134603EB52039CE70B2010E70C2048
:103314000EE703200CE700BFA009002052526141D0
:103324009C09002038B50446FFF75CFE0546B8BB8F
:1033340094F80032032B2AD194F80532012B26D1BC
:1033440001464FF400722046FFF75FFD4AF655220E
:10335400A4F8FE21134A2146226002F1FF5202F52D
:1033640000522032C4F8E421D4F8102294F8010267
:10337400C4F8E821D4F80C22C4F8EC21D4F81C22B7
:103384000132C4F82C22FFF71DFD84F805520022F7
:1033940094F801021146FFF723FD003818BF0120FD
:1033A40038BD00BF5252614103284B8B04BF8A8A47
:1033B40043EA024318467047D0F814320239023BFC
:1033C4008B4283BF90F80232D0F8280201FB03003D
:1033D400002070470129F8B506460D4659D9D0F8A2
:1033E40014328B4255D990F80032022B27D0032B8C
:1033F40036D0012B4DD101EB5104D0F8201201EB52
:103404005421FFF732FE10B14FF0FF30F8BDD6F86B
:103414002012671C3046C4F3080401EB5721345DC5
:10342400FFF723FE0028EFD1C7F30807F35D44EA52
:103434000320EB074CBF0009C0F30B00E6E7D0F80C
:10344400201201EB1521FFF710FE0028DCD16D00DE
:1034540005F4FF7573195B78705D40EA0320D5E7C6
:10346400D0F8201201EBD511FFF7FFFD0028CBD1D6
:10347400AD0005F4FE7573199878DA78000440EA13
:103484000260725D5B78104340EA032020F07040D4
:10349400BCE70120BAE7D0F8082270B5012A044637
:1034A4000D46A0F8061201D1022070BDD0F80032FA
:1034B400D3F814129142F7D9F2B993F80012032900
:1034C40002D1D3F82412C1B9B3F80812A942EBD936
:1034D400D3F82402C4F80C220028E5D0D4F8003232
:1034E40000EB151005F00F0503EB4513C4F81002AB
:1034F400C4F814320020D8E711460A4693F8026251
:103504003601B5421146D4F8000202D2FFF754FF47
:10351400E0E7FFF75FFF431C024609D00128C3D947
:10352400D4F80032D3F814328342BDD9AD1BE8E796
:103534000120BAE701292DE9F04104460E4615465B
:1035440070D9D0F814328B426CD990F80032022B27
:103554003DD0032B4CD0012B64D101EB5107D0F8A3
:10356400201201EB5721FFF780FD30BB16F0010656
:1035740007F10108C7F308071FBFE25D2B0103F041
:10358400F00302F00F0214BF1343EBB2E35501231F
:10359400D4F82012204684F8043201EB5821FFF7B6
:1035A40064FD50B9C8F308084EB1C5F3071504F813
:1035B40008500123002084F80432BDE8F08114F897
:1035C4000830C5F3032523F00F031D43EFE7D0F8BC
:1035D400201201EB1621FFF748FD0028EDD17600FB
:1035E40006F4FF76A5552644C5F307257570E0E774
:1035F400D0F8201201EBD611FFF737FD0028DCD1FB
:10360400B60006F4FE76A219D3781B0603F07043C5
:103614002B43C3F30721A3555170190C1B0E917052
:10362400D370C6E70220C8E7F8B505460F4689B946
:10363400D0F80C62F6B1D0F81432B34298BF012628
:103644003446D5F814320134A34216D8012E13D1CE
:10365400002405E0FFF7BEFE0128044602D8012439
:103664002046F8BD601C35D0D5F81432A342F7D8F3
:103674003E46E5E70126E3E7022421462846FFF714
:10368400A9FE30B1411C25D00128E8D0B442D8D1DC
:10369400DEE76FF0704221462846FFF74BFFB8B9CA
:1036A4007FB9D5F81032C5F80C425A1CD8D0013B6A
:1036B400C5F8103295F8053243F0010385F8053258
:1036C400CEE7224639462846FFF734FF0028E8D0E3
:1036D4000128C4D14FF0FF34C2E72DE9F843B0F814
:1036E400066204460136B3B2894613B90420BDE824
:1036F400F883D0F81032002BF8D016F00F08D0F869
:10370400000209D1D4F80C120133C4F8103269B99B
:10371400B0F80832B342E9D9D4F80032002003EB00
:103724004813A4F80662C4F81432E0E790F8027271
:10373400013F17EA1617EFD1FFF74CFE01280546A3
:1037440001D80220D3E7421C01D10120CFE7D4F8ED
:103754000002D0F81432AB422FD8B9F1000FC5D013
:10376400D4F80C12FFF760FF054600283ED001286C
:10377400E7D0431CE9D0D4F80002FFF733FC01463C
:103784000028E2D14FF40072D4F80002FFF73DFBA9
:10379400D4F8002229461046FFF70EFE4FF0010927
:1037A400C2F82C02D4F8000290F80232BB420ED8C0
:1037B400D0F82C32DB1BC0F82C322946D4F8000296
:1037C400C4F80C52FFF7F8FDC4F81002A4E780F81F
:1037D4000492FFF707FC0028B7D1D4F80022013780
:1037E400D2F82C320133C2F82C32DBE707207EE713
:1037F400F8B50B7804462F2B0D4601D05C2B00D175
:1038040001350026C4F808622B781F2B31D95C4E91
:103814002A782B462F2A05F10105F9D05C2AF7D026
:10382400D4F818720B2220213846FFF7EEFA002054
:103834004FF0080C0246591E4B7801F1010E202B63
:1038440030D92F2B2ED05C2B2CD02E2B00F08C803B
:1038540084450CD9190644BF803BF35C494D48BFED
:1038640042F0030215F8011B51B18B42FAD1062034
:1038740005E031462046FFF70EFEC4F81462F8BD99
:10388400A3F14101192904D842F002023B5401304A
:1038940073E0A3F1610119299EBF203B42F00102AC
:1038A400DBB2F3E7202B8CBF002301238D1C9B008C
:1038B4000028DCD039782046E52904BF0521397079
:1038C400BCF1080F04BF9200D2B202F00301012937
:1038D40002F00C0208BF43F01003042A08BF43F0AF
:1038E40008030021FB72FFF7D6FD00BBD4F81012C9
:1038F400D4F80002FFF7B9FBC8B9D4F814321A7827
:10390400A2B1D87A10F008000BD1D4F8182203F130
:103914000B0C63450BD013F8017B12F8011B8F428B
:10392400F7D000212046FFF7D8FEDEE70420D4F8C4
:103934001832DB7A30B10428A1D113F0040F08BF88
:1039440005209CE75A079AD4D4F81412CB7ADB06E4
:1039540008D5D4F8003293F80002FFF725FDC4F827
:10396400080255E705208AE7BCF1080F7FF47FAF12
:1039740060464FF00B0C9200D2B271465CE700BF78
:10398400467200083772000838B500210546FFF773
:1039940082FD044690B9D5F81012D5F80002FFF75D
:1039A40064FB044650B9D5F814321B78E52B0AD0D1
:1039B4004BB101212846FFF790FEEAE7042C08BF2B
:1039C4000724204638BDD5F81012D5F80002FFF7B9
:1039D4004CFB04460028F4D120222146D5F81402D9
:1039E400FFF713FAD5E985010B22FFF705FA012247
:1039F400D5F8003283F80422E3E7012970B50446C0
:103A04000D4601D8022070BDD0F814328B42F9D98A
:103A1400D4F81432AB4205D929462046FFF7DAFC24
:103A2400064608B90020EEE70128EBD0411C15D06A
:103A3400002229462046FFF77DFD0028E3D1D4F873
:103A440010325A1C08D00133C4F8103294F80532ED
:103A540043F0010384F805323546D9E70120D2E763
:103A640030B585B0CDE9001003A803911446FFF7E3
:103A7400A1FA011E1BDB0F4D55F8210020B1FFF701
:103A840077FA002380F80032019B23B945F82130EE
:103A9400002005B030BD0022012C83F8002245F837
:103AA4002130F5D1694601A8FFF722FBF1E70B208D
:103AB400EFE700BFA00900202DE9F04FADF50F7D21
:103AC400174606460191002800F0B680002302F054
:103AD4001E09C0F800324A4601A986A8FFF708FB70
:103AE400804600285FD103AB019906A88C93FFF7A9
:103AF4007FFE8B9D044648B9002D59D0B9F10001D1
:103B040018BF012106A8FFF787F9044617F01C0F18
:103B140007F01F0958D0002C4ED0042C09D14C4B6F
:103B24001A6812B1DB68002B44D106A8FFF72CFFFA
:103B340004468B9D49F00809002C40F0848019F05C
:103B4400080FDDF818A24DD0FFF7CCF8C0F3072317
:103B5400A873EB73030C000E2B746874EC722C774F
:103B64006C77AC77EC779AF800022946FFF71CFCD7
:103B74000123AC76EC762C756C7507468AF8043212
:103B840058B301465046DAF82CB2FFF736FF044624
:103B9400002858D1013F59465046CAF80C72FFF725
:103BA40064FAE8B1804640460DF50F7DBDE8F08F1C
:103BB4000624ABE71224BCE7EB7A13F0110F44D1CF
:103BC400C7F38007FC00B7E7002C3CD1EB7AD8069A
:103BD40038D4BA0701D5DB0737D419F0080F01D060
:103BE40049F02009869CB9F1010FD4F82C3294BF16
:103BF40000210121C6E9873506A8FFF74DF9C6F86B
:103C04002802E0B1002786F8069286F8077294F835
:103C140000022946FFF7C8FBC6F81002EB69C6F894
:103C24001872C6E98273B4F80632C6F82472C6F86C
:103C34000042A6F80432B6E74FF00908B3E74FF0A4
:103C44000208B0E70424A046ADE70724FBE700BF61
:103C5400840900202DE9F74F9A460023CAF8003062
:103C6400044689461746FFF7E9F9054650BB94F820
:103C740007523DBB94F8063213F00103009300F0A1
:103C8400AE80D4E98236F61ABE4228BF3E46CEB193
:103C9400D4F80812C1F30803002B40F09180D4F843
:103CA400000290F8028208F1FF3808EA512818F05F
:103CB400FF0820D151B9D4F81002012812D80225E6
:103CC40084F80752284603B0BDE8F08FD4F82432B4
:103CD4001BB12046FFF75AF9EFE7D4F81412FFF7A7
:103CE40079FBEAE7421C04D10123009D84F80732E2
:103CF400E8E7C4F81402D4F800B2D4F81412584611
:103D0400FFF75AFB0028DAD0B6F5007F00EB08076E
:103D140033D39BF8022208EB562191424FEA5623F3
:103D2400494688BFA2EB08039BF801023A46019377
:103D3400FFF73AF80028D7D194F80622019B12F035
:103D4400400F0CD0D4F81802C01B834207D94FF49B
:103D54000072214609EB4020FFF74EF8019B5F02F9
:103D6400D4F80832B9443B44C4F80832DAF80030D5
:103D7400F61B3B44CAF8003089E7D4F8182297426E
:103D84001CD094F806329BF801025B060BD5012384
:103D94002146FFF717F80028A6D194F8063223F03D
:103DA400400384F80632D4F8000201233A4621463F
:103DB40090F80102FEF7F8FF002895D1C4F81872B4
:103DC400D4F808124846C1F30801C1F50077B74298
:103DD40028BF374621443A46FFF70EF8C0E70725C7
:103DE40070E770B50446FFF729F9002859D194F813
:103DF400063213F0200054D05B06D4F800020FD52D
:103E040001232146D4F8182290F80102FEF7DAFFC4
:103E1400002845D194F8063223F0400384F8063292
:103E2400D4F81C12D4F80002FFF71FF90646C0BBF1
:103E3400D4F82052EB7A43F02003EB72D4F80C321E
:103E44002B77B4F80C321B0A6B77B4F80E32AB77CD
:103E540094F80F32EB77D4F81032AB76C3F3072221
:103E64001B0C2B751B0A6B75EA76FEF73BFFC0F340
:103E74000723EB75030C2B76030EA8756B76AE74D3
:103E8400EE7494F80632D4F8000223F0200384F888
:103E94000632012380F80432BDE87040FFF742BACD
:103EA400012070BD10B50446FFF79BFF50B92046B2
:103EB400FFF7C4F830B9D4F82802FFF739F808B985
:103EC400C4F8000210BD000030B50F4B5C7A012C21
:103ED40017D800245D7AEDB25C555D7A03EB850555
:103EE4006860587A184402725A7A501CC0B25872E8
:103EF4003A234B702F23204630320A708B70CC70DB
:103F040030BD0120FCE700BFA40900200022FFF718
:103F1400DBBF0000012310B5054C2370FEF71CFF26
:103F240018B9237803F0FE032370207810BD00BF76
:103F340034000020012310B5054C2370FEF7F4FE75
:103F440018B9237803F0FE032370207810BD00BF56
:103F540034000020084610B511461A46074BFEF7F8
:103F6400C3FE40B1012010BD013CFBD0FEF7DCFED6
:103F74000028F9D1F7E7024CF8E700BF00E1F505A6
:103F8400A1860100084610B511461A46074BFEF7F4
:103F9400BBFE40B1012010BD013CFBD0FEF7C4FEC6
:103FA4000028F9D1F7E7024CF8E700BF00E1F50576
:103FB400A186010030B5124B15461C7889B014F067
:103FC400010418D1032918D8DFE801F00D02081004
:103FD4006846FEF7B3FE069B2B6004E06846FEF7D6
:103FE400ADFE079B2B80204609B030BD6846FEF726
:103FF400A5FE079BF0E70324F5E70424F3E700BFDD
:104004003400002000B59BB0009104916FF0004192
:104014000591029105490391694600F099F900223E
:10402400009B1A701BB05DF804FB00BF0802FFFF81
:1040340013460A46014602480068FFF7E3BF00BF83
:104044003800002003460244934200D1704703F82D
:10405400011BF9E7014B1868704700BF38000020C6
:1040640070B500260C4D0D4C641BA410A64209D15A
:1040740000F078FC00260A4D0A4C641BA410A642EA
:1040840005D170BD55F8043B98470136EEE755F865
:10409400043B98470136F2E71073000810730008D8
:1040A40010730008147300087047704738B505464C
:1040B400002940D051F8043C0C1F002BB8BFE41871
:1040C40000F0DEF81C4A136833B9636014602846B4
:1040D400BDE8384000F0DAB8A34208D920682118B6
:1040E4008B4201BF19685B6809182160EDE71A4625
:1040F4005B680BB1A342FAD911685018A0420BD1E6
:1041040020680144501883421160E0D118685B684C
:10411400084410605360DAE702D90C232B60D6E719
:10412400206821188B4201BF19685B680918216057
:1041340063605460CBE738BDF40A002070B50F4EBD
:104144000C463168054611B900F0AAFB30602146DF
:10415400284600F0A5FB431C03D14FF0FF34204652
:1041640070BDC41C24F00304A042F8D0211A2846D0
:1041740000F096FB0130F2D1EFE700BFF00A002017
:104184002DE9F843CD1C25F0030508350C2D38BF67
:104194000C25002D064601DBA94204D90C2333600B
:1041A4000020BDE8F883DFF8D48000F069F8D8F87F
:1041B40000301C4644BB29463046FFF7BFFF431C72
:1041C400044658D1D8F800402746002F43D1002C8C
:1041D4004BD023683946304604EB030900F060FBFA
:1041E400814542D1216830466D1A2946FFF7A6FF62
:1041F40001303AD023682B442360D8F800305A6841
:1042040062BBC8F800700FE02268521B20D40B2A4E
:1042140017D96119A342256018BF5960636808BFA4
:10422400C8F8001062514B60304600F02FF804F1DA
:104234000B00231D20F00700C21A1CBF1B1AA35039
:10424400AFE76268A3420CBFC8F800205A60EBE7EE
:1042540023466468AEE73C467F68B6E71A465B6867
:10426400A342FBD100235360DEE70C2330463360C6
:1042740000F00CF894E70560D6E700BFF40A0020CC
:104284000148FFF711BF00BFEC0A00200148FFF707
:104294000CBF00BFEC0A00202DE9F0471F468E68D2
:1042A4008246BE420C4690460B682DD8B1F90C20CC
:1042B40012F4906F26D06569096905EB4505A3EBF7
:1042C400010905EBD5757B1C4B446D109D4238BF2D
:1042D4001D46530527D52946FFF752FF064660B30E
:1042E4004A46216900F0FAFAA38923F4906343F063
:1042F4008003A38126614E4426603E466561A5EB9A
:104304000905A560BE4200D93E46324641462068B2
:1043140000F0ACFA0020A3689B1BA360236833441D
:104324002360BDE8F0872A4600F0E6FA0646002836
:10433400E0D150462169FFF7B9FE0C23CAF80030DA
:10434400A3894FF0FF3043F04003A381E9E7000065
:104354002DE9F04F98468B8907461B060D461446F7
:104364009DB010D50B6973B94021FFF709FF286090
:10437400286130B90C233B604FF0FF301DB0BDE81D
:10438400F08F40236B610023099320238DF829309B
:1043940030234FF00109CDF80C80DFF898818DF8B7
:1043A4002A3023469A4613F8012B0AB1252AF9D15B
:1043B400BAEB040B0BD05B46224629463846FFF77E
:1043C4006BFF013000F0A780099A5A4409929AF8C9
:1043D4000030002B00F09F8000234FF0FF32CDE926
:1043E40005230AF1010A049307938DF853301A93B5
:1043F4005446052214F8011B4E4800F061FA049A51
:10440400D8B9D00644BF20238DF85330110744BFD8
:104414002B238DF853309AF800302A2B15D05446AC
:1044240000204FF00A0C079A214611F8013B303B5B
:10443400092B4BD9B0B1079214E0A0EB080309FA99
:1044440003F31343A2460493D2E7039B191D1B688D
:104454000391002BBBBF5B4242F002020793079318
:10446400B8BF049223782E2B0AD163782A2B32D139
:10447400039B02341A1D1B68039243EAE3730593FA
:10448400DFF8B4A003225046217800F019FA38B1BD
:104494004022049BA0EB0A0082401343013404939E
:1044A40014F8011B062225488DF8281000F008FA9C
:1044B400002836D0224B1BBB039B073323F0070392
:1044C40008330393099B334409936AE70C4601209C
:1044D4000CFB0232A8E700234FF00A0C1946013402
:1044E4000593204610F8012B303A092A03D9002BF2
:1044F400C6D00591C4E7044601230CFB0121F0E773
:1045040003AB00932A4638460E4B04A9AFF3008050
:10451400421C0646D6D1AB895B063FF52DAF099800
:104524002CE703AB00932A463846064B04A900F057
:104534007DF8EDE7DC720008E2720008E67200081C
:10454400000000009D4200082DE9F04716469846F9
:104554008A680B6907469342B8BF1346336091F8E3
:1045640043200C46DDF820900AB101333360236800
:10457400990642BF336802333360256815F0060597
:1045840006D104F1190AE36832689B1AAB422BDCAA
:1045940094F843302268003B18BF0123920630D4BC
:1045A4004146384604F14302C847013023D023680A
:1045B400226903F00603042B14BF002533684FF06F
:1045C400000608BFE56804F11A0408BFED1A54F8A0
:1045D400123C08BF25EAE5759342C4BF9B1AED1847
:1045E400B5421AD1002008E001235246414638461C
:1045F400C847013003D14FF0FF30BDE8F0870135E3
:10460400C1E73020E11881F843005A1C94F84510A2
:104614002244023382F84310C2E701232246414672
:104624003846C8470130E6D00136D9E72DE9FF47BF
:104634000F7E9146782F80460C469A460C9E01F1D7
:10464400430207D8622F0AD8002F00F0D380582FD6
:1046540000F0BA8004F1420684F842703AE0A7F10F
:104664006303152BF6D801A151F823F0C9460008BD
:10467400DD46000859460008594600085946000816
:1046840059460008DD460008594600085946000806
:104694005946000859460008DF4700080747000844
:1046A400994700085946000859460008014800087F
:1046B40059460008074700085946000859460008AB
:1046C400A147000833681A1D1B68326004F14206D2
:1046D40084F8423001239EE033682068191D31605C
:1046E400060601D51D6803E04506FBD5B3F9005065
:1046F400002D03DA2D236D4284F843300A235948F0
:1047040011E021683368080653F8045B02D44906B3
:1047140048BFADB26F2F336014BF0A23082351483A
:10472400002184F843106668002EA8BF2168A660A3
:10473400A4BF21F0040121600DB9002E4BD0164610
:10474400B5FBF3F103FB1157C75D06F8017D2F4656
:10475400BB420D46F4D9082B0BD12368DF0708D5DB
:10476400236961689942DEBF302306F8013C06F1F3
:10477400FF36921B22614B4621464046CDF800A0ED
:1047840003AAFFF7E1FE01304AD14FF0FF3004B035
:10479400BDE8F087236843F020032360782732487C
:1047A40084F84570236831681F0651F8045B02D40D
:1047B4005F0648BFADB23160D90744BF43F0200360
:1047C40023601DB11023ABE72648E9E7236823F0F3
:1047D40020032360F6E71646BDE733682568181DF5
:1047E400616930602E061B6801D5196002E0680615
:1047F400FBD51980002316462361BCE733680021EA
:104804001A1D32601E686268304600F059F808B11B
:10481400801B606063682361002384F84330AAE747
:104824003246494640462369D0470130ADD023681B
:104834009B0713D4E068039B9842B8BF1846A6E7C9
:104844000123324649464046D04701309DD00135C8
:10485400E36803995B1AAB42F2DCEBE7002504F151
:104864001906F5E7ED720008FE720008884210B5DB
:1048740001EB020402D98442234607D8431EA14215
:1048840008D011F8012B03F8012FF8E70146024480
:104894008A4200D110BD13F8014D02F8014DF7E72B
:1048A40038B50023054D044608462B60FCF74EFA44
:1048B400431C02D12B6803B1236038BDE80A0020F1
:1048C400034610B5C9B202449342184601D10020F0
:1048D40003E0047801338C42F6D110BD0A449142BE
:1048E40000F1FF3300D1704710B511F8014B91422C
:1048F40003F8014FF9D110BD2DE9F041804615466A
:104904000C4621B91146BDE8F041FFF739BC2AB97C
:10491400FFF7CCFB00242046BDE8F08100F01AF834
:104924008542064602D8B5EB500FF4D829464046D6
:10493400FFF726FC07460028ECD0B5422A4621465C
:1049440028BF3246FFF7CAFF21464046FFF7AEFBB9
:104954003C46E0E751F8043C181F002BBCBF0B5841
:10496400C0187047F8B500BFF8BC08BC9E46704735
:0C497400F8B500BFF8BC08BC9E467047B8
:104980000102000303010101010101000000000018
:104990000000000000000000000000000000000017
:1049A000000000000000000000000000000C000CEF
:1049B000000C000C000C000C000C000C0000000CA3
:1049C0000000000000000000000000000000001DCA
:1049D000C01DC008800880088000000000000000A2
:1049E000000000000000000000000000000D800D2D
:1049F000800D800D803FC01B003FC01B001B001BB3
:104A0000001B00000000000000000004001F8031B7
:104A100080318038001E000F000380318031803FDC
:104A20000004000400000000000000000018002442
:104A300000240018C007801E00318002400240019F
:104A40008000000000000000000000000000000FD7
:104A5000001800180018000C001D80370033001DDE
:104A600080000000000000000000000000000007BF
:104A70000007000200020002000000000000000029
:104A80000000000000000000000000000003000320
:104A90000006000E000C000C000C000C000E0006BE
:104AA00000030003000000000000000000180018D0
:104AB000000C000600060006000600060006000CBA
:104AC000001C0018000000000000000000060006A6
:104AD000003FC03FC00F001F801980000000000091
:104AE00000000000000000000000000000000000C6
:104AF000000400040004003F8004000400040000DF
:104B000000000000000000000000000000000000A5
:104B1000000000000000000000000000000600048B
:104B2000000C000800080000000000000000000069
:104B3000000000000000003F8000000000000000B6
:104B40000000000000000000000000000000000065
:104B5000000000000000000000000000000C000C3D
:104B6000000000000000000000000000C000C001C4
:104B70008001800300030006000C000C00180018E0
:104B8000003000300000000000000000000E001B9C
:104B9000003180318031803180318031801B000EC6
:104BA0000000000000000000000000000006003EC1
:104BB0000006000600060006000600060006003F8C
:104BC000C00000000000000000000000000F0019FD
:104BD0008031803180030006000C00180030003F57
:104BE000800000000000000000000000003F0061A5
:104BF00080018003001F0003800180018061803FED
:104C00000000000000000000000000000007000796
:104C1000000F000B001B00130033003F8003000F48
:104C2000800000000000000000000000001F80184D
:104C300000180018001F0011800180018021801FD2
:104C40000000000000000000000000000007801CC1
:104C50000018003000370039803180318019800F12
:104C6000000000000000000000000000007F004382
:104C700000030006000600060006000C000C000CF5
:104C8000000000000000000000000000001F0031D4
:104C900080318031801F0031803180318031801F30
:104CA000000000000000000000000000001E0033B3
:104CB000003180318033801D800180030007003C7B
:104CC00000000000000000000000000000000000E4
:104CD0000000000C000C000000000000000C000CA4
:104CE00000000000000000000000000000000000C4
:104CF00000000003000300000000000000060004A4
:104D00000008000800000000000000000000000093
:104D1000C003000400180060001800040003000035
:104D2000C0000000000000000000000000000000C3
:104D300000000000007FC000007FC00000000000F5
:104D40000000000000000000000000000000006003
:104D50000018000400030000C003000400180060F5
:104D60000000000000000000000000000000001F24
:104D70000031803180018007000C000C0000000C25
:104D8000000000000000000000000000000E001104
:104D90000021002100270029002900270020001100
:104DA000000E000000000000000000000000003FB6
:104DB000000F000900198019801F8030C030C079B1
:104DC000E000000000000000000000000000007F84
:104DD000003180318031803F003180318031807FEF
:104DE0000000000000000000000000000000001FA4
:104DF0004030C06040600060006000604030801F54
:104E00000000000000000000000000000000007F23
:104E100000318030C030C030C030C030C031807F01
:104E20000000000000000000000000000000007F03
:104E3000803080308032003E003200308030807F11
:104E40008000000000000000000000000000007F63
:104E5000C03040304032003E003200300030007C34
:104E60000000000000000000000000000000001E24
:104E700080318060806000600067C0618031801F89
:104E80000000000000000000000000000000007BA7
:104E9000C03180318031803F803180318031807BF2
:104EA000C000000000000000000000000000003F03
:104EB000C006000600060006000600060006003FC9
:104EC000C000000000000000000000000000001F03
:104ED000C003000300030003006300630063003E9F
:104EE0000000000000000000000000000000007B47
:104EF000C03180330036003C003E00330031807901
:104F0000C000000000000000000000000000007E63
:104F10000018001800180018001840184018407FAA
:104F2000C00000000000000000000000000000E0E1
:104F3000E060C071C07BC06AC06EC064C060C0FB6E
:104F4000E00000000000000000000000000000730E
:104F5000C0318039803D8035803780338031807921
:104F60008000000000000000000000000000001FA2
:104F700000318060C060C060C060C060C031801F10
:104F80000000000000000000000000000000007FA2
:104F90000031803180318031803F00300030007E30
:104FA0000000000000000000000000000000001FE2
:104FB00000318060C060C060C060C060C031801FD0
:104FC000000CC01F80000000000000000000007FF7
:104FD000003180318031803E003300318031807C6F
:104FE000E000000000000000000000000000001FC2
:104FF000803180318038001F000380318031803F54
:105000000000000000000000000000000000007F21
:10501000804C804C804C800C000C000C000C003F3D
:105020000000000000000000000000000000007B05
:10503000C031803180318031803180318031801FBA
:105040000000000000000000000000000000007BE5
:10505000C0318031801B001B001B000A000E000EB7
:10506000000000000000000000000000000000FB45
:10507000E060C064C06EC06EC02A803B803B80315F
:105080008000000000000000000000000000007B25
:10509000C031801B000E000E000E001B0031807B13
:1050A000C0000000000000000000000000000079C7
:1050B000E030C019800F0006000600060006001F41
:1050C0008000000000000000000000000000003F21
:1050D0008021802300060004000C00188030803FEF
:1050E00080000000000000000000000000078006B3
:1050F0000006000600060006000600060006000680
:10510000000600078000000000000030003000189A
:105110000018000C000C00060003000300018001D1
:105120008000C000C000000000000000001E00065B
:10513000000600060006000600060006000600063F
:105140000006001E0000000000000004000A000A23
:1051500000110020802080000000000000000000FE
:10516000000000000000000000000000000000003F
:10517000000000000000000000000000000000002F
:10518000000000000000000000FFE0080004000232
:10519000000000000000000000000000000000000F
:1051A00000000000000000000000000000000000FF
:1051B0000000001F00018001801F80318033801DAE
:1051C000C00000000000000000000000007000307F
:1051D0000030003700398030C030C030C0398077AF
:1051E00000000000000000000000000000000000BF
:1051F0000000001E80318060806000608031801F70
:10520000000000000000000000000000000380011A
:105210008001801D80338061806180618033801DCA
:10522000C0000000000000000000000000000000BE
:105230000000001F00318060C07FC0600030C01FD0
:105240008000000000000000000000000007E00CEB
:10525000000C003F800C000C000C000C000C003F08
:1052600080000000000000000000000000000000BE
:105270000000001DC0338061806180618033801D2B
:1052800080018001801F00000000000000700030DD
:105290000030003700398031803180318031807BAF
:1052A000C000000000000000000000000006000632
:1052B0000000001E00060006000600060006003F73
:1052C000C000000000000000000000000006000612
:1052D0000000003F0003000300030003000300037D
:1052E00000030003003E00000000000000700030DA
:1052F000003000378036003C003C00360033007739
:10530000C00000000000000000000000001E0006B9
:105310000006000600060006000600060006003F24
:10532000C0000000000000000000000000000000BD
:105330000000007F8036C036C036C036C036C0762A
:10534000E00000000000000000000000000000007D
:105350000000007700398031803180318031807BDE
:10536000C00000000000000000000000000000007D
:105370000000001F00318060C060C060C031801F2D
:10538000000000000000000000000000000000001D
:105390000000007700398030C030C030C03980371D
:1053A00000300030007C0000000000000000000021
:1053B0000000001DC0338061806180618033801DEA
:1053C000800180018007C000000000000000000094
:1053D0000000007B801CC018001800180018007F17
:1053E00000000000000000000000000000000000BD
:1053F0000000001F8031803C001F00038031803F8F
:10540000000000000000000000000000001800186C
:105410000018007F00180018001800180018800FEE
:10542000000000000000000000000000000000007C
:105430000000007380318031803180318033801DE5
:10544000C00000000000000000000000000000009C
:105450000000007BC0318031801B001B000E000E5D
:10546000000000000000000000000000000000003C
:10547000000000F1E060C064C06EC03B803B803142
:10548000800000000000000000000000000000009C
:105490000000007BC01B000E000E000E001B007BF6
:1054A000C00000000000000000000000000000003C
:1054B00000000079E030C0198019800B000F000651
:1054C0000006000C003E000000000000000000008C
:1054D0000000003F80218003000E00180030803F54
:1054E0008000000000000000000000000006000C2A
:1054F000000C000C000C000C0018000C000C000C40
:10550000000C00060000000000000000000600067D
:10551000000600060006000600060006000600065B
:10552000000600060000000000000000000C00065D
:10553000000600060006000600030006000600063E
:105540000006000C00000000000000000000000049
:10555000000000000018002480030000000000008C
:10556000000000000000000000000000000000003B
:10557000000000000000000000000000000000002B
:10558000000000000000000000000000000000001B
:10559000000000000000000000000000000000000B
:1055A00000000000000000000000000000000000FB
:1055B00000000000000000000003800003800003E2
:1055C00080000380000380000380000380000380CC
:1055D0000003800001000001000000000000000046
:1055E00003800003800000000000000000000000B5
:1055F00000000000000000000000000000000000AB
:10560000000000000E70000E70000E7000042000FC
:10561000042000042000042000000000000000001E
:10562000000000000000000000000000000000007A
:10563000000000000000000000000000000000006A
:105640000000000000000000000660000660000688
:1056500060000660000660003FF8003FF80006604A
:10566000000CC0003FF8003FF8000CC0000CC00068
:105670000CC0000CC0000CC00000000000000000C6
:105680000000000000000000000000000000018099
:105690000001800007B0000FF000187000187000C3
:1056A0001C00000F800007E00000F0001830001C14
:1056B00030001C70001FE0001BC000018000018052
:1056C00000018000018000000000000000000000D8
:1056D0000000000000000000000780000FC0001C58
:1056E000E0001860001860001CE0000FF80007E000
:1056F000001FF000073800061800061800073800E1
:1057000003F00001E00000000000000000000000C5
:105710000000000000000000000000000000000089
:105720000000000000000003F00007F0000C600023
:105730000C00000C00000600000700000F9C001D7C
:10574000FC0018F0001870000FFC0007DC000000DF
:105750000000000000000000000000000000000049
:1057600000000000000000000000000003800003B3
:105770008000038000010000010000010000010022
:105780000000000000000000000000000000000019
:105790000000000000000000000000000000000009
:1057A00000000000000000000000000000000000F9
:1057B0000000180000380000700000F00000E00059
:1057C00000E00001C00001C00001C00001C00001F4
:1057D000C00001C00000E00000E0000070000070A8
:1057E0000000380000180000000000000000000069
:1057F0000000000000000000001800001C00000E67
:1058000000000E0000070000070000038000038076
:105810000003800003800003800003800007000075
:105820000700000F00000E00001C00001800000020
:105830000000000000000000000000000000000068
:10584000000180000180000180001DB8001FF800E9
:1058500007E00003C00003C000066000066000000F
:105860000000000000000000000000000000000038
:105870000000000000000000000000000000000028
:105880000000000000000000000000000000000117
:1058900080000180000180000180000180003FFC49
:1058A000003FFC00018000018000018000018000B9
:1058B0000180000000000000000000000000000067
:1058C00000000000000000000000000000000000D8
:1058D00000000000000000000000000000000000C8
:1058E00000000000000000000000000000000000B8
:1058F000000000000000E00000C00001C0000180C6
:105900000001800003000003000000000000000010
:105910000000000000000000000000000000000087
:1059200000000000000000000000000000001FF860
:10593000001FF80000000000000000000000000050
:105940000000000000000000000000000000000057
:105950000000000000000000000000000000000047
:105960000000000000000000000000000000000037
:105970000000000000000000000000000000000027
:10598000000000000003C00003C00003C0000000CE
:105990000000000000000000000000000000000007
:1059A000000000001800001800003800003000005F
:1059B000700000600000600000C00000C0000180B6
:1059C0000001800003000003000006000006000044
:1059D0000E00000C00001C00001800001800000061
:1059E00000000000000000000000000000000000B7
:1059F0000003C00007E0000C30000C300018180055
:105A0000181800181800181800181800181800188E
:105A100018000C30000C300007E00003C00000004C
:105A20000000000000000000000000000000000076
:105A30000000000000000000000080000780001F40
:105A400080001D8000018000018000018000018035
:105A500000018000018000018000018000018000C1
:105A60001FF8001FF8000000000000000000000008
:105A70000000000000000000000000000000000026
:105A80000007C0001FF00038300030180030180048
:105A900000180000300000600001C0000380000614
:105AA00000000C00001800003FF8003FF800000064
:105AB00000000000000000000000000000000000E6
:105AC00000000000000000000003C0000FE0000C18
